{"abi":[{"type":"fallback","stateMutability":"nonpayable"},{"type":"receive","stateMutability":"payable"},{"type":"function","name":"record","inputs":[{"name":"data","type":"bytes","internalType":"bytes"}],"outputs":[],"stateMutability":"nonpayable"},{"type":"event","name":"Record","inputs":[{"name":"player","type":"address","indexed":true,"internalType":"address"},{"name":"data","type":"bytes","indexed":false,"internalType":"bytes"},{"name":"timestamp","type":"uint256","indexed":false,"internalType":"uint256"}],"anonymous":false}],"bytecode":{"object":"0x608060405234801561000f575f80fd5b506101f98061001d5f395ff3fe608060405260043610610021575f3560e01c8063e1112648146100b65761006d565b3661006d57604080518181525f9181019190915242602082015233907f96ef7cbf96b08a047921e4d4de2e4d49d73dae95a411c60d54de6257cbb836b6906060015b60405180910390a2005b348015610078575f80fd5b50336001600160a01b03167f96ef7cbf96b08a047921e4d4de2e4d49d73dae95a411c60d54de6257cbb836b65f364260405161006393929190610120565b3480156100c1575f80fd5b506100d56100d0366004610157565b6100d7565b005b336001600160a01b03167f96ef7cbf96b08a047921e4d4de2e4d49d73dae95a411c60d54de6257cbb836b683834260405161011493929190610120565b60405180910390a25050565b60408152826040820152828460608301375f606084830101525f6060601f19601f8601168301019050826020830152949350505050565b5f8060208385031215610168575f80fd5b823567ffffffffffffffff8082111561017f575f80fd5b818501915085601f830112610192575f80fd5b8135818111156101a0575f80fd5b8660208285010111156101b1575f80fd5b6020929092019691955090935050505056fea2646970667358221220d8710d906abe4faecbe50177888a35bc0a46f87a01b637b060a8395d741a6bf364736f6c63430008140033","linkReferences":{}},"methodIdentifiers":{"record(bytes)":"e1112648"},"id":0}